{
  "contractName": "StateChannel",
  "abi": [
    {
      "constant": true,
      "inputs": [
        {
          "name": "",
          "type": "uint256"
        }
      ],
      "name": "participants",
      "outputs": [
        {
          "name": "",
          "type": "address"
        }
      ],
      "payable": false,
      "stateMutability": "view",
      "type": "function",
      "signature": "0x35c1d349"
    },
    {
      "constant": true,
      "inputs": [],
      "name": "stakeAmount",
      "outputs": [
        {
          "name": "",
          "type": "uint256"
        }
      ],
      "payable": false,
      "stateMutability": "view",
      "type": "function",
      "signature": "0x60c7dc47"
    },
    {
      "constant": true,
      "inputs": [],
      "name": "currentStatus",
      "outputs": [
        {
          "name": "",
          "type": "uint8"
        }
      ],
      "payable": false,
      "stateMutability": "view",
      "type": "function",
      "signature": "0xef8a9235"
    },
    {
      "inputs": [],
      "payable": true,
      "stateMutability": "payable",
      "type": "constructor",
      "signature": "constructor"
    },
    {
      "constant": false,
      "inputs": [
        {
          "name": "_hashedMessage",
          "type": "bytes32"
        }
      ],
      "name": "stake",
      "outputs": [],
      "payable": true,
      "stateMutability": "payable",
      "type": "function",
      "signature": "0xc0d64a87"
    },
    {
      "constant": true,
      "inputs": [
        {
          "name": "_value",
          "type": "uint256"
        },
        {
          "name": "_salt",
          "type": "uint256"
        },
        {
          "name": "_sender",
          "type": "address"
        }
      ],
      "name": "getHashedValue",
      "outputs": [
        {
          "name": "message",
          "type": "bytes32"
        }
      ],
      "payable": false,
      "stateMutability": "pure",
      "type": "function",
      "signature": "0x20ff4162"
    },
    {
      "constant": true,
      "inputs": [
        {
          "name": "_value",
          "type": "uint256"
        },
        {
          "name": "_salt",
          "type": "uint256"
        },
        {
          "name": "_sender",
          "type": "address"
        },
        {
          "name": "_hashedMessage",
          "type": "bytes32"
        }
      ],
      "name": "isHashMessageValid",
      "outputs": [
        {
          "name": "",
          "type": "bool"
        }
      ],
      "payable": false,
      "stateMutability": "view",
      "type": "function",
      "signature": "0x964c2328"
    },
    {
      "constant": false,
      "inputs": [
        {
          "name": "_claimer",
          "type": "address"
        },
        {
          "name": "_value",
          "type": "uint256"
        },
        {
          "name": "_salt",
          "type": "uint256"
        },
        {
          "name": "_sender",
          "type": "address"
        },
        {
          "name": "_hashedMessage",
          "type": "bytes32"
        }
      ],
      "name": "reveal",
      "outputs": [],
      "payable": false,
      "stateMutability": "nonpayable",
      "type": "function",
      "signature": "0xc8dc987a"
    },
    {
      "constant": true,
      "inputs": [],
      "name": "isStatusSetup",
      "outputs": [
        {
          "name": "",
          "type": "bool"
        }
      ],
      "payable": false,
      "stateMutability": "view",
      "type": "function",
      "signature": "0xcec99faf"
    },
    {
      "constant": true,
      "inputs": [],
      "name": "isStatusCommit",
      "outputs": [
        {
          "name": "",
          "type": "bool"
        }
      ],
      "payable": false,
      "stateMutability": "view",
      "type": "function",
      "signature": "0x27bde918"
    },
    {
      "constant": true,
      "inputs": [],
      "name": "isStatusReveal",
      "outputs": [
        {
          "name": "",
          "type": "bool"
        }
      ],
      "payable": false,
      "stateMutability": "view",
      "type": "function",
      "signature": "0x3a53c6b2"
    },
    {
      "constant": true,
      "inputs": [],
      "name": "isStatusDispute",
      "outputs": [
        {
          "name": "",
          "type": "bool"
        }
      ],
      "payable": false,
      "stateMutability": "view",
      "type": "function",
      "signature": "0xe19b2adc"
    }
  ],
  "bytecode": "0x608060405260013411151561007c576040517f08c379a000000000000000000000000000000000000000000000000000000000815260040180806020018281038252601c8152602001807f7374616b6520616d6f756e74206d757374206265203e2031207765690000000081525060200191505060405180910390fd5b3460008190555060023390806001815401808255809150509060018203906000526020600020016000909192909190916101000a81548173ffffffffffffffffffffffffffffffffffffffff021916908373ffffffffffffffffffffffffffffffffffffffff16021790555050600060038111156100f657fe5b600160006101000a81548160ff021916908360ff160217905550610a418061011f6000396000f3fe6080604052600436106100af576000357c0100000000000000000000000000000000000000000000000000000000900463ffffffff16806320ff4162146100b457806327bde9181461012d57806335c1d3491461015c5780633a53c6b2146101d757806360c7dc4714610206578063964c232814610231578063c0d64a87146102b8578063c8dc987a146102e6578063cec99faf14610375578063e19b2adc146103a4578063ef8a9235146103d3575b600080fd5b3480156100c057600080fd5b50610117600480360360608110156100d757600080fd5b810190808035906020019092919080359060200190929190803573ffffffffffffffffffffffffffffffffffffffff169060200190929190505050610404565b6040518082815260200191505060405180910390f35b34801561013957600080fd5b50610142610481565b604051808215151515815260200191505060405180910390f35b34801561016857600080fd5b506101956004803603602081101561017f57600080fd5b81019080803590602001909291905050506104ac565b604051808273ffffffffffffffffffffffffffffffffffffffff1673ffffffffffffffffffffffffffffffffffffffff16815260200191505060405180910390f35b3480156101e357600080fd5b506101ec6104ea565b604051808215151515815260200191505060405180910390f35b34801561021257600080fd5b5061021b610515565b6040518082815260200191505060405180910390f35b34801561023d57600080fd5b5061029e6004803603608081101561025457600080fd5b810190808035906020019092919080359060200190929190803573ffffffffffffffffffffffffffffffffffffffff1690602001909291908035906020019092919050505061051b565b604051808215151515815260200191505060405180910390f35b6102e4600480360360208110156102ce57600080fd5b810190808035906020019092919050505061060d565b005b3480156102f257600080fd5b50610373600480360360a081101561030957600080fd5b81019080803573ffffffffffffffffffffffffffffffffffffffff1690602001909291908035906020019092919080359060200190929190803573ffffffffffffffffffffffffffffffffffffffff16906020019092919080359060200190929190505050610829565b005b34801561038157600080fd5b5061038a6109ae565b604051808215151515815260200191505060405180910390f35b3480156103b057600080fd5b506103b96109d8565b604051808215151515815260200191505060405180910390f35b3480156103df57600080fd5b506103e8610a02565b604051808260ff1660ff16815260200191505060405180910390f35b6000838383604051602001808481526020018381526020018273ffffffffffffffffffffffffffffffffffffffff1673ffffffffffffffffffffffffffffffffffffffff166c0100000000000000000000000002815260140193505050506040516020818303038152906040528051906020012090509392505050565b60006001600381111561049057fe5b60ff16600160009054906101000a900460ff1660ff1614905090565b6002818154811015156104bb57fe5b906000526020600020016000915054906101000a900473ffffffffffffffffffffffffffffffffffffffff1681565b6000600260038111156104f957fe5b60ff16600160009054906101000a900460ff1660ff1614905090565b60005481565b6000813073ffffffffffffffffffffffffffffffffffffffff166320ff41628787876040518463ffffffff167c0100000000000000000000000000000000000000000000000000000000028152600401808481526020018381526020018273ffffffffffffffffffffffffffffffffffffffff1673ffffffffffffffffffffffffffffffffffffffff168152602001935050505060206040518083038186803b1580156105c757600080fd5b505afa1580156105db573d6000803e3d6000fd5b505050506040513d60208110156105f157600080fd5b8101908080519060200190929190505050149050949350505050565b600134111515610685576040517f08c379a00000000000000000000000000000000000000000000000000000000081526004018080602001828103825260108152602001807f7374616b65206d7573742065786973740000000000000000000000000000000081525060200191505060405180910390fd5b600054341415156106fe576040517f08c379a000000000000000000000000000000000000000000000000000000000815260040180806020018281038252601e8152602001807f7374616b65206d75737420657175616c20696e697469616c2076616c7565000081525060200191505060405180910390fd5b60023390806001815401808255809150509060018203906000526020600020016000909192909190916101000a81548173ffffffffffffffffffffffffffffffffffffffff021916908373ffffffffffffffffffffffffffffffffffffffff1602179055505080600360003373ffffffffffffffffffffffffffffffffffffffff1673ffffffffffffffffffffffffffffffffffffffff16815260200190815260200160002081905550600260038111156107b557fe5b60ff16600160009054906101000a900460ff1660ff16141580156107f957506003808111156107e057fe5b60ff16600160009054906101000a900460ff1660ff1614155b15610826576001600381111561080b57fe5b600160006101000a81548160ff021916908360ff1602179055505b50565b60003073ffffffffffffffffffffffffffffffffffffffff1663964c2328868686866040518563ffffffff167c0100000000000000000000000000000000000000000000000000000000028152600401808581526020018481526020018373ffffffffffffffffffffffffffffffffffffffff1673ffffffffffffffffffffffffffffffffffffffff16815260200182815260200194505050505060206040518083038186803b1580156108dc57600080fd5b505afa1580156108f0573d6000803e3d6000fd5b505050506040513d602081101561090657600080fd5b8101908080519060200190929190505050905060011515811515141515610995576040517f08c379a00000000000000000000000000000000000000000000000000000000081526004018080602001828103825260168152602001807f46696e616c20737461746520697320696e76616c69640000000000000000000081525060200191505060405180910390fd5b8573ffffffffffffffffffffffffffffffffffffffff16ff5b60008060038111156109bc57fe5b60ff16600160009054906101000a900460ff1660ff1614905090565b60006003808111156109e657fe5b60ff16600160009054906101000a900460ff1660ff1614905090565b600160009054906101000a900460ff168156fea165627a7a7230582042bc61d743cd63096b7edd07f82365f3c8c652f5764b44268d740da035c7715d0029",
  "source": "pragma solidity ^0.5.0;\n\n/**\n * @title StateChannel\n * @author Trevor Clarke (gitlab.com/trevorjtclarke)\n *\n * @dev Extremely Simplistic State Channel\n */\ncontract StateChannel {\n  // Keep track of what phase allows an action\n  // Order annotated below forces timeline\n  enum ChannelStatus {\n    // 1.\n    Setup,\n    // 2.\n    Commit,\n    // 3a.\n    Reveal,\n    // 3b.\n    Dispute\n  }\n\n  uint256 public stakeAmount;\n  uint8 public currentStatus;\n  address[] public participants;\n  // Stores pre-hashed data that is submitted with stake\n  // Later, when salt is revealed, hash is validated\n  mapping(address => bytes32) hashDataList;\n\n  /// @dev initialize contract with default state\n  constructor() public payable {\n    require(msg.value > 1 wei, \"stake amount must be > 1 wei\");\n    stakeAmount = msg.value;\n    participants.push(msg.sender);\n    currentStatus = uint8(ChannelStatus.Setup);\n  }\n\n  function stake(bytes32 _hashedMessage) external payable {\n    require(msg.value > 1 wei, \"stake must exist\");\n    require(msg.value == stakeAmount, \"stake must equal initial value\");\n    participants.push(msg.sender);\n\n    // Important: Store committed data, for later proof!\n    hashDataList[msg.sender] = _hashedMessage;\n\n    // Update status: ready for votes\n    if (\n      currentStatus != uint8(ChannelStatus.Reveal) &&\n      currentStatus != uint8(ChannelStatus.Dispute)\n    ) {\n      currentStatus = uint8(ChannelStatus.Commit);\n    }\n  }\n\n  /// @dev return hash based on inputs\n  function getHashedValue(uint256 _value, uint256 _salt, address _sender) public pure returns (bytes32 message) {\n    return keccak256(abi.encodePacked(_value, _salt, _sender));\n  }\n\n  /// @dev Check if inputs match original hash\n  function isHashMessageValid(uint256 _value, uint256 _salt, address _sender, bytes32 _hashedMessage) external view returns (bool) {\n    return this.getHashedValue(_value, _salt, _sender) == _hashedMessage;\n  }\n\n  // Reveal state\n  function reveal(\n    address payable _claimer,\n    uint256 _value,\n    uint256 _salt,\n    address _sender,\n    bytes32 _hashedMessage\n  ) external {\n    bool _valid = this.isHashMessageValid(_value, _salt, _sender, _hashedMessage);\n    require(_valid == true, \"Final state is invalid\");\n\n    // Finally, send stake fees to claimer\n    selfdestruct(_claimer);\n  }\n\n  /// @dev Helper functions for understanding current channel status\n  function isStatusSetup() public view returns (bool) {\n    return currentStatus == uint8(ChannelStatus.Setup);\n  }\n  function isStatusCommit() public view returns (bool) {\n    return currentStatus == uint8(ChannelStatus.Commit);\n  }\n  function isStatusReveal() public view returns (bool) {\n    return currentStatus == uint8(ChannelStatus.Reveal);\n  }\n  function isStatusDispute() public view returns (bool) {\n    return currentStatus == uint8(ChannelStatus.Dispute);\n  }\n}\n",
  "sourcePath": "/Users/trevorclarke/gitlab/demo-statechannels/contracts/StateChannel.sol",
  "compiler": {
    "name": "solc",
    "version": "0.5.0+commit.1d4f565a.Emscripten.clang"
  },
  "schemaVersion": "3.0.2",
  "updatedAt": "2019-03-07T11:42:21.647Z",
  "devdoc": {
    "author": "Trevor Clarke (gitlab.com/trevorjtclarke)",
    "details": "Extremely Simplistic State Channel",
    "methods": {
      "constructor": {
        "details": "initialize contract with default state"
      },
      "getHashedValue(uint256,uint256,address)": {
        "details": "return hash based on inputs"
      },
      "isHashMessageValid(uint256,uint256,address,bytes32)": {
        "details": "Check if inputs match original hash"
      },
      "isStatusSetup()": {
        "details": "Helper functions for understanding current channel status"
      }
    },
    "title": "StateChannel"
  },
  "userdoc": {
    "methods": {}
  }
}