{
  "contractName": "VotingBallot",
  "abi": [
    {
      "constant": true,
      "inputs": [
        {
          "name": "",
          "type": "uint256"
        }
      ],
      "name": "proposals",
      "outputs": [
        {
          "name": "id",
          "type": "uint256"
        },
        {
          "name": "no",
          "type": "uint256"
        },
        {
          "name": "yes",
          "type": "uint256"
        },
        {
          "name": "nonce",
          "type": "uint256"
        }
      ],
      "payable": false,
      "stateMutability": "view",
      "type": "function",
      "signature": "0x013cf08b"
    },
    {
      "constant": true,
      "inputs": [
        {
          "name": "",
          "type": "uint256"
        }
      ],
      "name": "voterAddresses",
      "outputs": [
        {
          "name": "",
          "type": "address"
        }
      ],
      "payable": false,
      "stateMutability": "view",
      "type": "function",
      "signature": "0xdd0e2373"
    },
    {
      "inputs": [],
      "payable": true,
      "stateMutability": "payable",
      "type": "constructor",
      "signature": "constructor"
    },
    {
      "anonymous": false,
      "inputs": [
        {
          "indexed": true,
          "name": "channelId",
          "type": "bytes32"
        },
        {
          "indexed": true,
          "name": "leader",
          "type": "address"
        },
        {
          "indexed": false,
          "name": "expiration",
          "type": "uint256"
        },
        {
          "indexed": false,
          "name": "voterTotal",
          "type": "uint256"
        }
      ],
      "name": "ChannelConnected",
      "type": "event",
      "signature": "0x4e264748f0b7a0ced10607fc24d4afe92a0ff613047470e312440216a9b700a7"
    },
    {
      "anonymous": false,
      "inputs": [
        {
          "indexed": true,
          "name": "channelId",
          "type": "bytes32"
        },
        {
          "indexed": true,
          "name": "leader",
          "type": "address"
        }
      ],
      "name": "ChannelDisconnected",
      "type": "event",
      "signature": "0x48ae502651e31e376f3697e684191db911981ca4f8a39327b563d93bb13cb4b6"
    },
    {
      "anonymous": false,
      "inputs": [
        {
          "indexed": false,
          "name": "sender",
          "type": "address"
        },
        {
          "indexed": false,
          "name": "value",
          "type": "uint256"
        },
        {
          "indexed": false,
          "name": "balance",
          "type": "uint256"
        }
      ],
      "name": "VoterSentFunds",
      "type": "event",
      "signature": "0x756b579f8c483f9f5c3d05f0cd9a32f085e0f62a2f930f6dd4da9d558e65f938"
    },
    {
      "constant": false,
      "inputs": [
        {
          "name": "_salt",
          "type": "uint256"
        }
      ],
      "name": "stake",
      "outputs": [],
      "payable": true,
      "stateMutability": "payable",
      "type": "function",
      "signature": "0xa694fc3a"
    },
    {
      "constant": true,
      "inputs": [
        {
          "name": "_value",
          "type": "uint256"
        },
        {
          "name": "_salt",
          "type": "uint256"
        },
        {
          "name": "_signer",
          "type": "address"
        }
      ],
      "name": "getHashedValue",
      "outputs": [
        {
          "name": "message",
          "type": "bytes32"
        }
      ],
      "payable": false,
      "stateMutability": "pure",
      "type": "function",
      "signature": "0x20ff4162"
    },
    {
      "constant": true,
      "inputs": [
        {
          "name": "_value",
          "type": "uint256"
        },
        {
          "name": "_salt",
          "type": "uint256"
        },
        {
          "name": "_signer",
          "type": "address"
        },
        {
          "name": "_signedMessage",
          "type": "bytes32"
        }
      ],
      "name": "checkHashedValidity",
      "outputs": [
        {
          "name": "",
          "type": "bool"
        }
      ],
      "payable": false,
      "stateMutability": "view",
      "type": "function",
      "signature": "0x0c444a9a"
    },
    {
      "constant": false,
      "inputs": [
        {
          "name": "_no0",
          "type": "uint256"
        },
        {
          "name": "_yes0",
          "type": "uint256"
        },
        {
          "name": "_no1",
          "type": "uint256"
        },
        {
          "name": "_yes1",
          "type": "uint256"
        }
      ],
      "name": "reveal",
      "outputs": [],
      "payable": false,
      "stateMutability": "nonpayable",
      "type": "function",
      "signature": "0xe2f3c8db"
    },
    {
      "constant": true,
      "inputs": [
        {
          "name": "_idx",
          "type": "uint256"
        }
      ],
      "name": "getProposalByIndex",
      "outputs": [
        {
          "name": "id",
          "type": "uint256"
        },
        {
          "name": "no",
          "type": "uint256"
        },
        {
          "name": "yes",
          "type": "uint256"
        }
      ],
      "payable": false,
      "stateMutability": "view",
      "type": "function",
      "signature": "0x37d1d389"
    },
    {
      "constant": true,
      "inputs": [
        {
          "name": "_idx",
          "type": "uint256"
        }
      ],
      "name": "getSaltForVoter",
      "outputs": [
        {
          "name": "salt",
          "type": "uint256"
        }
      ],
      "payable": false,
      "stateMutability": "view",
      "type": "function",
      "signature": "0x75ee8489"
    },
    {
      "constant": true,
      "inputs": [],
      "name": "isStatusSetup",
      "outputs": [
        {
          "name": "",
          "type": "bool"
        }
      ],
      "payable": false,
      "stateMutability": "view",
      "type": "function",
      "signature": "0xcec99faf"
    },
    {
      "constant": true,
      "inputs": [],
      "name": "isStatusVoting",
      "outputs": [
        {
          "name": "",
          "type": "bool"
        }
      ],
      "payable": false,
      "stateMutability": "view",
      "type": "function",
      "signature": "0x7de85f53"
    },
    {
      "constant": true,
      "inputs": [],
      "name": "isStatusReveal",
      "outputs": [
        {
          "name": "",
          "type": "bool"
        }
      ],
      "payable": false,
      "stateMutability": "view",
      "type": "function",
      "signature": "0x3a53c6b2"
    }
  ],
  "bytecode": "0x6080604052336000806101000a81548173ffffffffffffffffffffffffffffffffffffffff021916908373ffffffffffffffffffffffffffffffffffffffff1602179055506201395c42016001819055506001546000809054906101000a900473ffffffffffffffffffffffffffffffffffffffff16604051602001808381526020018273ffffffffffffffffffffffffffffffffffffffff1673ffffffffffffffffffffffffffffffffffffffff166c01000000000000000000000000028152601401925050506040516020818303038152906040528051906020012060048190555060066000809054906101000a900473ffffffffffffffffffffffffffffffffffffffff1690806001815401808255809150509060018203906000526020600020016000909192909190916101000a81548173ffffffffffffffffffffffffffffffffffffffff021916908373ffffffffffffffffffffffffffffffffffffffff16021790555050600760806040519081016040528060018152602001600081526020016000815260200142815250908060018154018082558091505090600182039060005260206000209060040201600090919290919091506000820151816000015560208201518160010155604082015181600201556060820151816003015550505060076080604051908101604052806002815260200160008152602001600081526020014281525090806001815401808255809150509060018203906000526020600020906004020160009091929091909150600082015181600001556020820151816001015560408201518160020155606082015181600301555050506007608060405190810160405280600381526020016000815260200160008152602001428152509080600181540180825580915050906001820390600052602060002090600402016000909192909190915060008201518160000155602082015181600101556040820151816002015560608201518160030155505050600760806040519081016040528060048152602001600081526020016000815260200142815250908060018154018082558091505090600182039060005260206000209060040201600090919290919091506000820151816000015560208201518160010155604082015181600201556060820151816003015550505060076080604051908101604052806005815260200160008152602001600081526020014281525090806001815401808255809150509060018203906000526020600020906004020160009091929091909150600082015181600001556020820151816001015560408201518160020155606082015181600301555050506000809054906101000a900473ffffffffffffffffffffffffffffffffffffffff1673ffffffffffffffffffffffffffffffffffffffff166004547f4e264748f0b7a0ced10607fc24d4afe92a0ff613047470e312440216a9b700a7600154600780549050604051808381526020018281526020019250505060405180910390a3610f598061046b6000396000f3fe6080604052600436106100af576000357c0100000000000000000000000000000000000000000000000000000000900463ffffffff168063013cf08b146100b45780630c444a9a1461011857806320ff41621461019f57806337d1d389146102185780633a53c6b21461027557806375ee8489146102a45780637de85f53146102f3578063a694fc3a14610322578063cec99faf14610350578063dd0e23731461037f578063e2f3c8db146103fa575b600080fd5b3480156100c057600080fd5b506100ed600480360360208110156100d757600080fd5b8101908080359060200190929190505050610453565b6040518085815260200184815260200183815260200182815260200194505050505060405180910390f35b34801561012457600080fd5b506101856004803603608081101561013b57600080fd5b810190808035906020019092919080359060200190929190803573ffffffffffffffffffffffffffffffffffffffff16906020019092919080359060200190929190505050610492565b604051808215151515815260200191505060405180910390f35b3480156101ab57600080fd5b50610202600480360360608110156101c257600080fd5b810190808035906020019092919080359060200190929190803573ffffffffffffffffffffffffffffffffffffffff169060200190929190505050610584565b6040518082815260200191505060405180910390f35b34801561022457600080fd5b506102516004803603602081101561023b57600080fd5b8101908080359060200190929190505050610601565b60405180848152602001838152602001828152602001935050505060405180910390f35b34801561028157600080fd5b5061028a61067e565b604051808215151515815260200191505060405180910390f35b3480156102b057600080fd5b506102dd600480360360208110156102c757600080fd5b81019080803590602001909291905050506106a9565b6040518082815260200191505060405180910390f35b3480156102ff57600080fd5b506103086107f8565b604051808215151515815260200191505060405180910390f35b61034e6004803603602081101561033857600080fd5b8101908080359060200190929190505050610823565b005b34801561035c57600080fd5b50610365610aed565b604051808215151515815260200191505060405180910390f35b34801561038b57600080fd5b506103b8600480360360208110156103a257600080fd5b8101908080359060200190929190505050610b17565b604051808273ffffffffffffffffffffffffffffffffffffffff1673ffffffffffffffffffffffffffffffffffffffff16815260200191505060405180910390f35b34801561040657600080fd5b506104516004803603608081101561041d57600080fd5b8101908080359060200190929190803590602001909291908035906020019092919080359060200190929190505050610b55565b005b60078181548110151561046257fe5b90600052602060002090600402016000915090508060000154908060010154908060020154908060030154905084565b6000813073ffffffffffffffffffffffffffffffffffffffff166320ff41628787876040518463ffffffff167c0100000000000000000000000000000000000000000000000000000000028152600401808481526020018381526020018273ffffffffffffffffffffffffffffffffffffffff1673ffffffffffffffffffffffffffffffffffffffff168152602001935050505060206040518083038186803b15801561053e57600080fd5b505afa158015610552573d6000803e3d6000fd5b505050506040513d602081101561056857600080fd5b8101908080519060200190929190505050149050949350505050565b6000838383604051602001808481526020018381526020018273ffffffffffffffffffffffffffffffffffffffff1673ffffffffffffffffffffffffffffffffffffffff166c0100000000000000000000000002815260140193505050506040516020818303038152906040528051906020012090509392505050565b600080600061060e610edd565b60078581548110151561061d57fe5b9060005260206000209060040201608060405190810160405290816000820154815260200160018201548152602001600282015481526020016003820154815250509050806000015181602001518260400151935093509350509193909250565b60006002600381111561068d57fe5b60ff16600260009054906101000a900460ff1660ff1614905090565b60003373ffffffffffffffffffffffffffffffffffffffff166000809054906101000a900473ffffffffffffffffffffffffffffffffffffffff1673ffffffffffffffffffffffffffffffffffffffff1614151561076f576040517f08c379a000000000000000000000000000000000000000000000000000000000815260040180806020018281038252600f8152602001807f4d757374206265204c656164657221000000000000000000000000000000000081525060200191505060405180910390fd5b600060068381548110151561078057fe5b9060005260206000200160009054906101000a900473ffffffffffffffffffffffffffffffffffffffff169050600560008273ffffffffffffffffffffffffffffffffffffffff1673ffffffffffffffffffffffffffffffffffffffff16815260200190815260200160002060010154915050919050565b60006001600381111561080757fe5b60ff16600260009054906101000a900460ff1660ff1614905090565b60013411151561089b576040517f08c379a00000000000000000000000000000000000000000000000000000000081526004018080602001828103825260108152602001807f7374616b65206d7573742065786973740000000000000000000000000000000081525060200191505060405180910390fd5b7f756b579f8c483f9f5c3d05f0cd9a32f085e0f62a2f930f6dd4da9d558e65f93833343073ffffffffffffffffffffffffffffffffffffffff1631604051808473ffffffffffffffffffffffffffffffffffffffff1673ffffffffffffffffffffffffffffffffffffffff168152602001838152602001828152602001935050505060405180910390a161092d610f06565b60008160000190151590811515815250506000816020019060ff16908160ff16815250508181604001818152505080600560003373ffffffffffffffffffffffffffffffffffffffff1673ffffffffffffffffffffffffffffffffffffffff16815260200190815260200160002060008201518160000160006101000a81548160ff02191690831515021790555060208201518160000160016101000a81548160ff021916908360ff1602179055506040820151816001015590505060063390806001815401808255809150509060018203906000526020600020016000909192909190916101000a81548173ffffffffffffffffffffffffffffffffffffffff021916908373ffffffffffffffffffffffffffffffffffffffff16021790555050610a656001600354610ebc90919063ffffffff16565b60038190555060026003811115610a7857fe5b60ff16600260009054906101000a900460ff1660ff1614158015610abc5750600380811115610aa357fe5b60ff16600260009054906101000a900460ff1660ff1614155b15610ae95760016003811115610ace57fe5b600260006101000a81548160ff021916908360ff1602179055505b5050565b6000806003811115610afb57fe5b60ff16600260009054906101000a900460ff1660ff1614905090565b600681815481101515610b2657fe5b906000526020600020016000915054906101000a900473ffffffffffffffffffffffffffffffffffffffff1681565b3373ffffffffffffffffffffffffffffffffffffffff166000809054906101000a900473ffffffffffffffffffffffffffffffffffffffff1673ffffffffffffffffffffffffffffffffffffffff16141515610c19576040517f08c379a000000000000000000000000000000000000000000000000000000000815260040180806020018281038252600f8152602001807f4d757374206265204c656164657221000000000000000000000000000000000081525060200191505060405180910390fd5b60026003811115610c2657fe5b60ff16600260009054906101000a900460ff1660ff1614151515610cb2576040517f08c379a00000000000000000000000000000000000000000000000000000000081526004018080602001828103825260138152602001807f43616e6e6f742072657665616c2074776963650000000000000000000000000081525060200191505060405180910390fd5b60026003811115610cbf57fe5b600260006101000a81548160ff021916908360ff1602179055506000809054906101000a900473ffffffffffffffffffffffffffffffffffffffff1673ffffffffffffffffffffffffffffffffffffffff166004547f48ae502651e31e376f3697e684191db911981ca4f8a39327b563d93bb13cb4b660405160405180910390a3610d48610edd565b60076000815481101515610d5857fe5b90600052602060002090600402016080604051908101604052908160008201548152602001600182015481526020016002820154815260200160038201548152505090508481602001818152505083816040018181525050610db8610edd565b60076001815481101515610dc857fe5b906000526020600020906004020160806040519081016040529081600082015481526020016001820154815260200160028201548152602001600382015481525050905083816020018181525050828160400181815250508160076000815481101515610e3157fe5b9060005260206000209060040201600082015181600001556020820151816001015560408201518160020155606082015181600301559050508060076001815481101515610e7b57fe5b906000526020600020906004020160008201518160000155602082015181600101556040820151816002015560608201518160030155905050505050505050565b6000808284019050838110151515610ed357600080fd5b8091505092915050565b608060405190810160405280600081526020016000815260200160008152602001600081525090565b606060405190810160405280600015158152602001600060ff16815260200160008152509056fea165627a7a72305820f46542f397ef8e4cd3897771304963fff464e991f7db1a7d026e6bc7aa01055f0029",
  "source": "pragma solidity ^0.5.0;\n\nimport \"openzeppelin-solidity/contracts/cryptography/ECDSA.sol\";\nimport \"openzeppelin-solidity/contracts/math/SafeMath.sol\";\n\n/**\n * @title VotingBallot\n * @author Trevor Clarke (gitlab.com/trevorjtclarke)\n *\n * @dev A system for multi-participant voting using a\n *    State Channel approach to remove fees, and speed\n *    up individual voting input transfer.\n *    This contract is a single \"channel\" for simplicity,\n *    all functionality is simplified to reveal timeline\n *    & functionality needed for a state channel implementation.\n *    NOTE: This is NOT production ready, only used for example!\n */\ncontract VotingBallot {\n  using ECDSA for bytes32;\n  using SafeMath for uint256;\n\n  /**\n   * Events & Variables\n   */\n  event ChannelConnected(bytes32 indexed channelId, address indexed leader, uint expiration, uint voterTotal);\n  event ChannelDisconnected(bytes32 indexed channelId, address indexed leader);\n  event VoterSentFunds(address sender, uint value, uint balance);\n\n  // Keep track of what phase allows an action\n  // Order annotated below forces timeline\n  enum ChannelStatus {\n    // 1.\n    Setup,\n    // 2.\n    Voting,\n    // 3a.\n    Reveal,\n    // 3b.\n    Dispute\n  }\n\n  struct Proposal {\n    uint id;\n    uint no;\n    uint yes;\n    uint nonce;\n  }\n\n  struct Voter {\n    bool voted;\n    uint8 totalVotes;\n    uint256 salt;\n  }\n\n  /// @dev NOTE: These variables could be changed to a struct,\n  ///      to allow multiple channels for a single contract\n  address leader;\n  uint expiration;\n  uint8 currentStatus;\n  uint256 totalVoters;\n  bytes32 channelId;\n  mapping(address => Voter) voters;\n  address[] public voterAddresses;\n  Proposal[] public proposals;\n\n  /// @dev initialize contract with default single channel state\n  constructor() public payable {\n    /* require(msg.value > 1 wei, \"stake must exist\"); */\n    leader = msg.sender;\n    expiration = now + 1337 minutes;\n    channelId = keccak256(abi.encodePacked(expiration, leader));\n\n    // initialize default data, NOTE: This is just example!\n    voterAddresses.push(leader);\n    proposals.push(Proposal(1, 0, 0, now));\n    proposals.push(Proposal(2, 0, 0, now));\n    proposals.push(Proposal(3, 0, 0, now));\n    proposals.push(Proposal(4, 0, 0, now));\n    proposals.push(Proposal(5, 0, 0, now));\n\n    emit ChannelConnected(channelId, leader, expiration, proposals.length);\n  }\n\n  /// @dev Check that sender is leader\n  modifier isLeaderOnly() {\n    require(leader == msg.sender, 'Must be Leader!');\n    _;\n  }\n\n  // allow funds to be sent to the contract\n  // This initializes the voter's ability, based on their stake!\n  function stake(uint256 _salt) external payable {\n    require(msg.value > 1 wei, \"stake must exist\");\n    emit VoterSentFunds(msg.sender, msg.value, address(this).balance);\n\n    Voter memory _voter;\n    _voter.voted = false;\n    _voter.totalVotes = 0;\n    _voter.salt = _salt;\n    voters[msg.sender] = _voter;\n    voterAddresses.push(msg.sender);\n    totalVoters = totalVoters.add(1);\n\n    // Update status: ready for votes\n    if (\n      currentStatus != uint8(ChannelStatus.Reveal) &&\n      currentStatus != uint8(ChannelStatus.Dispute)\n    ) {\n      currentStatus = uint8(ChannelStatus.Voting);\n    }\n  }\n\n  function getHashedValue(uint256 _value, uint256 _salt, address _signer) public pure returns (bytes32 message) {\n    return keccak256(abi.encodePacked(_value, _salt, _signer));\n  }\n\n  /// @dev Function to check state signer\n  function checkHashedValidity(uint256 _value, uint256 _salt, address _signer, bytes32 _signedMessage) external view returns (bool) {\n    return this.getHashedValue(_value, _salt, _signer) == _signedMessage;\n  }\n\n  // TODO: Safely save state and post onchain, enable withdraw\n  // NOTE: Instead of serializing data, reduced to 2 proposals for brevity & example\n  function reveal(uint _no0, uint _yes0, uint _no1, uint _yes1) isLeaderOnly public {\n    require(currentStatus != uint8(ChannelStatus.Reveal), \"Cannot reveal twice\");\n    currentStatus = uint8(ChannelStatus.Reveal);\n\n    emit ChannelDisconnected(channelId, leader);\n\n    // Commit state change\n    // TODO: Sender is leader, submitting final tally for each proposal\n    Proposal memory p0 = proposals[0];\n    p0.no = _no0;\n    p0.yes = _yes0;\n    Proposal memory p1 = proposals[1];\n    p1.no = _no1;\n    p1.yes = _yes1;\n\n    proposals[0] = p0;\n    proposals[1] = p1;\n\n    // TODO: Check that revealed state matches signedMessage!\n  }\n\n  function getProposalByIndex(uint256 _idx) external view returns (\n    uint id,\n    uint no,\n    uint yes\n  ) {\n    Proposal memory p = proposals[_idx];\n    return (\n      p.id,\n      p.no,\n      p.yes\n    );\n  }\n\n  /// @dev used by leader, to reveal & tally all votes.\n  // TODO: Do i need this?\n  function getSaltForVoter(uint _idx) isLeaderOnly external view returns (\n    uint salt\n  ) {\n    address _voterAddress = voterAddresses[_idx];\n    return voters[_voterAddress].salt;\n  }\n\n  /// @dev Helper functions for understanding current channel status\n  function isStatusSetup() public view returns (bool) {\n    return currentStatus == uint8(ChannelStatus.Setup);\n  }\n  function isStatusVoting() public view returns (bool) {\n    return currentStatus == uint8(ChannelStatus.Voting);\n  }\n  function isStatusReveal() public view returns (bool) {\n    return currentStatus == uint8(ChannelStatus.Reveal);\n  }\n\n  /* function checkSigner(uint256 _value, bytes calldata _signedMessage) external view returns (address) {\n    bytes32 message = ECDSA.toEthSignedMessageHash(keccak256(abi.encodePacked(address(this), _value)));\n\n    // check that the signature is from the sender\n    return message.recover(_signedMessage);\n  } */\n}\n",
  "sourcePath": "/Users/trevorclarke/gitlab/demo-statechannels/contracts/VotingBallot.sol",
  "compiler": {
    "name": "solc",
    "version": "0.5.0+commit.1d4f565a.Emscripten.clang"
  },
  "schemaVersion": "3.0.2",
  "updatedAt": "2019-03-07T11:38:02.435Z",
  "devdoc": {
    "author": "Trevor Clarke (gitlab.com/trevorjtclarke)",
    "details": "A system for multi-participant voting using a   State Channel approach to remove fees, and speed   up individual voting input transfer.   This contract is a single \"channel\" for simplicity,   all functionality is simplified to reveal timeline   & functionality needed for a state channel implementation.   NOTE: This is NOT production ready, only used for example!",
    "methods": {
      "checkHashedValidity(uint256,uint256,address,bytes32)": {
        "details": "Function to check state signer"
      },
      "constructor": {
        "details": "initialize contract with default single channel state"
      },
      "getSaltForVoter(uint256)": {
        "details": "used by leader, to reveal & tally all votes."
      },
      "isStatusSetup()": {
        "details": "Helper functions for understanding current channel status"
      }
    },
    "title": "VotingBallot"
  },
  "userdoc": {
    "methods": {}
  }
}